{
  "_format": "hh-sol-artifact-1",
  "contractName": "ProfileImageNfts",
  "sourceName": "contracts/MintProfileImage.sol",
  "abi": [
    {
      "inputs": [],
      "stateMutability": "nonpayable",
      "type": "constructor"
    },
    {
      "anonymous": false,
      "inputs": [
        {
          "indexed": true,
          "internalType": "address",
          "name": "owner",
          "type": "address"
        },
        {
          "indexed": true,
          "internalType": "address",
          "name": "approved",
          "type": "address"
        },
        {
          "indexed": true,
          "internalType": "uint256",
          "name": "tokenId",
          "type": "uint256"
        }
      ],
      "name": "Approval",
      "type": "event"
    },
    {
      "anonymous": false,
      "inputs": [
        {
          "indexed": true,
          "internalType": "address",
          "name": "owner",
          "type": "address"
        },
        {
          "indexed": true,
          "internalType": "address",
          "name": "operator",
          "type": "address"
        },
        {
          "indexed": false,
          "internalType": "bool",
          "name": "approved",
          "type": "bool"
        }
      ],
      "name": "ApprovalForAll",
      "type": "event"
    },
    {
      "anonymous": false,
      "inputs": [
        {
          "indexed": true,
          "internalType": "address",
          "name": "previousOwner",
          "type": "address"
        },
        {
          "indexed": true,
          "internalType": "address",
          "name": "newOwner",
          "type": "address"
        }
      ],
      "name": "OwnershipTransferred",
      "type": "event"
    },
    {
      "anonymous": false,
      "inputs": [
        {
          "indexed": true,
          "internalType": "address",
          "name": "from",
          "type": "address"
        },
        {
          "indexed": true,
          "internalType": "address",
          "name": "to",
          "type": "address"
        },
        {
          "indexed": true,
          "internalType": "uint256",
          "name": "tokenId",
          "type": "uint256"
        }
      ],
      "name": "Transfer",
      "type": "event"
    },
    {
      "inputs": [
        {
          "internalType": "address",
          "name": "to",
          "type": "address"
        },
        {
          "internalType": "uint256",
          "name": "tokenId",
          "type": "uint256"
        }
      ],
      "name": "approve",
      "outputs": [],
      "stateMutability": "nonpayable",
      "type": "function"
    },
    {
      "inputs": [
        {
          "internalType": "address",
          "name": "owner",
          "type": "address"
        }
      ],
      "name": "balanceOf",
      "outputs": [
        {
          "internalType": "uint256",
          "name": "",
          "type": "uint256"
        }
      ],
      "stateMutability": "view",
      "type": "function"
    },
    {
      "inputs": [],
      "name": "getAlltoken",
      "outputs": [
        {
          "components": [
            {
              "internalType": "uint256",
              "name": "id",
              "type": "uint256"
            },
            {
              "internalType": "string",
              "name": "uri",
              "type": "string"
            },
            {
              "internalType": "string",
              "name": "space",
              "type": "string"
            }
          ],
          "internalType": "struct ProfileImageNfts.RenderToken[]",
          "name": "",
          "type": "tuple[]"
        }
      ],
      "stateMutability": "view",
      "type": "function"
    },
    {
      "inputs": [
        {
          "internalType": "uint256",
          "name": "tokenId",
          "type": "uint256"
        }
      ],
      "name": "getApproved",
      "outputs": [
        {
          "internalType": "address",
          "name": "",
          "type": "address"
        }
      ],
      "stateMutability": "view",
      "type": "function"
    },
    {
      "inputs": [
        {
          "internalType": "address",
          "name": "owner",
          "type": "address"
        },
        {
          "internalType": "address",
          "name": "operator",
          "type": "address"
        }
      ],
      "name": "isApprovedForAll",
      "outputs": [
        {
          "internalType": "bool",
          "name": "",
          "type": "bool"
        }
      ],
      "stateMutability": "view",
      "type": "function"
    },
    {
      "inputs": [
        {
          "internalType": "address",
          "name": "recipents",
          "type": "address"
        },
        {
          "internalType": "string",
          "name": "_uri",
          "type": "string"
        }
      ],
      "name": "mint",
      "outputs": [
        {
          "internalType": "uint256",
          "name": "",
          "type": "uint256"
        }
      ],
      "stateMutability": "nonpayable",
      "type": "function"
    },
    {
      "inputs": [],
      "name": "name",
      "outputs": [
        {
          "internalType": "string",
          "name": "",
          "type": "string"
        }
      ],
      "stateMutability": "view",
      "type": "function"
    },
    {
      "inputs": [],
      "name": "owner",
      "outputs": [
        {
          "internalType": "address",
          "name": "",
          "type": "address"
        }
      ],
      "stateMutability": "view",
      "type": "function"
    },
    {
      "inputs": [
        {
          "internalType": "uint256",
          "name": "tokenId",
          "type": "uint256"
        }
      ],
      "name": "ownerOf",
      "outputs": [
        {
          "internalType": "address",
          "name": "",
          "type": "address"
        }
      ],
      "stateMutability": "view",
      "type": "function"
    },
    {
      "inputs": [],
      "name": "renounceOwnership",
      "outputs": [],
      "stateMutability": "nonpayable",
      "type": "function"
    },
    {
      "inputs": [
        {
          "internalType": "address",
          "name": "from",
          "type": "address"
        },
        {
          "internalType": "address",
          "name": "to",
          "type": "address"
        },
        {
          "internalType": "uint256",
          "name": "tokenId",
          "type": "uint256"
        }
      ],
      "name": "safeTransferFrom",
      "outputs": [],
      "stateMutability": "nonpayable",
      "type": "function"
    },
    {
      "inputs": [
        {
          "internalType": "address",
          "name": "from",
          "type": "address"
        },
        {
          "internalType": "address",
          "name": "to",
          "type": "address"
        },
        {
          "internalType": "uint256",
          "name": "tokenId",
          "type": "uint256"
        },
        {
          "internalType": "bytes",
          "name": "_data",
          "type": "bytes"
        }
      ],
      "name": "safeTransferFrom",
      "outputs": [],
      "stateMutability": "nonpayable",
      "type": "function"
    },
    {
      "inputs": [
        {
          "internalType": "address",
          "name": "operator",
          "type": "address"
        },
        {
          "internalType": "bool",
          "name": "approved",
          "type": "bool"
        }
      ],
      "name": "setApprovalForAll",
      "outputs": [],
      "stateMutability": "nonpayable",
      "type": "function"
    },
    {
      "inputs": [
        {
          "internalType": "bytes4",
          "name": "interfaceId",
          "type": "bytes4"
        }
      ],
      "name": "supportsInterface",
      "outputs": [
        {
          "internalType": "bool",
          "name": "",
          "type": "bool"
        }
      ],
      "stateMutability": "view",
      "type": "function"
    },
    {
      "inputs": [],
      "name": "symbol",
      "outputs": [
        {
          "internalType": "string",
          "name": "",
          "type": "string"
        }
      ],
      "stateMutability": "view",
      "type": "function"
    },
    {
      "inputs": [
        {
          "internalType": "uint256",
          "name": "tokenId",
          "type": "uint256"
        }
      ],
      "name": "tokenURI",
      "outputs": [
        {
          "internalType": "string",
          "name": "",
          "type": "string"
        }
      ],
      "stateMutability": "view",
      "type": "function"
    },
    {
      "inputs": [
        {
          "internalType": "address",
          "name": "from",
          "type": "address"
        },
        {
          "internalType": "address",
          "name": "to",
          "type": "address"
        },
        {
          "internalType": "uint256",
          "name": "tokenId",
          "type": "uint256"
        }
      ],
      "name": "transferFrom",
      "outputs": [],
      "stateMutability": "nonpayable",
      "type": "function"
    },
    {
      "inputs": [
        {
          "internalType": "address",
          "name": "newOwner",
          "type": "address"
        }
      ],
      "name": "transferOwnership",
      "outputs": [],
      "stateMutability": "nonpayable",
      "type": "function"
    }
  ],
  "bytecode": "0x60806040523480156200001157600080fd5b506040518060400160405280601081526020017f50726f66696c65496d6167654e667473000000000000000000000000000000008152506040518060400160405280600381526020017f50494e0000000000000000000000000000000000000000000000000000000000815250816000908051906020019062000096929190620001a6565b508060019080519060200190620000af929190620001a6565b505050620000d2620000c6620000d860201b60201c565b620000e060201b60201c565b620002bb565b600033905090565b6000600660009054906101000a900473ffffffffffffffffffffffffffffffffffffffff16905081600660006101000a81548173ffffffffffffffffffffffffffffffffffffffff021916908373ffffffffffffffffffffffffffffffffffffffff1602179055508173ffffffffffffffffffffffffffffffffffffffff168173ffffffffffffffffffffffffffffffffffffffff167f8be0079c531659141344cd1fd0a4f28419497f9722a3daafe3b4186f6b6457e060405160405180910390a35050565b828054620001b49062000256565b90600052602060002090601f016020900481019282620001d8576000855562000224565b82601f10620001f357805160ff191683800117855562000224565b8280016001018555821562000224579182015b828111156200022357825182559160200191906001019062000206565b5b50905062000233919062000237565b5090565b5b808211156200025257600081600090555060010162000238565b5090565b600060028204905060018216806200026f57607f821691505b602082108114156200028657620002856200028c565b5b50919050565b7f4e487b7100000000000000000000000000000000000000000000000000000000600052602260045260246000fd5b612d3680620002cb6000396000f3fe608060405234801561001057600080fd5b50600436106101165760003560e01c8063715018a6116100a2578063b88d4fde11610071578063b88d4fde146102cd578063c87b56dd146102e9578063d0def52114610319578063e985e9c514610349578063f2fde38b1461037957610116565b8063715018a61461026b5780638da5cb5b1461027557806395d89b4114610293578063a22cb465146102b157610116565b806323b872dd116100e957806323b872dd146101b557806328904431146101d157806342842e0e146101ef5780636352211e1461020b57806370a082311461023b57610116565b806301ffc9a71461011b57806306fdde031461014b578063081812fc14610169578063095ea7b314610199575b600080fd5b61013560048036038101906101309190611d8c565b610395565b6040516101429190612287565b60405180910390f35b610153610477565b60405161016091906122a2565b60405180910390f35b610183600480360381019061017e9190611dde565b610509565b60405161019091906121fe565b60405180910390f35b6101b360048036038101906101ae9190611d50565b61058e565b005b6101cf60048036038101906101ca9190611bf6565b6106a6565b005b6101d9610706565b6040516101e69190612265565b60405180910390f35b61020960048036038101906102049190611bf6565b61086b565b005b61022560048036038101906102209190611dde565b61088b565b60405161023291906121fe565b60405180910390f35b61025560048036038101906102509190611b91565b61093d565b60405161026291906124c4565b60405180910390f35b6102736109f5565b005b61027d610a7d565b60405161028a91906121fe565b60405180910390f35b61029b610aa7565b6040516102a891906122a2565b60405180910390f35b6102cb60048036038101906102c69190611cc0565b610b39565b005b6102e760048036038101906102e29190611c45565b610b4f565b005b61030360048036038101906102fe9190611dde565b610bb1565b60405161031091906122a2565b60405180910390f35b610333600480360381019061032e9190611cfc565b610ca4565b60405161034091906124c4565b60405180910390f35b610363600480360381019061035e9190611bba565b610cdb565b6040516103709190612287565b60405180910390f35b610393600480360381019061038e9190611b91565b610d6f565b005b60007f80ac58cd000000000000000000000000000000000000000000000000000000007bffffffffffffffffffffffffffffffffffffffffffffffffffffffff1916827bffffffffffffffffffffffffffffffffffffffffffffffffffffffff1916148061046057507f5b5e139f000000000000000000000000000000000000000000000000000000007bffffffffffffffffffffffffffffffffffffffffffffffffffffffff1916827bffffffffffffffffffffffffffffffffffffffffffffffffffffffff1916145b80610470575061046f82610e67565b5b9050919050565b60606000805461048690612728565b80601f01602080910402602001604051908101604052809291908181526020018280546104b290612728565b80156104ff5780601f106104d4576101008083540402835291602001916104ff565b820191906000526020600020905b8154815290600101906020018083116104e257829003601f168201915b5050505050905090565b600061051482610ed1565b610553576040517f08c379a000000000000000000000000000000000000000000000000000000000815260040161054a90612404565b60405180910390fd5b6004600083815260200190815260200160002060009054906101000a900473ffffffffffffffffffffffffffffffffffffffff169050919050565b60006105998261088b565b90508073ffffffffffffffffffffffffffffffffffffffff168373ffffffffffffffffffffffffffffffffffffffff16141561060a576040517f08c379a000000000000000000000000000000000000000000000000000000000815260040161060190612464565b60405180910390fd5b8073ffffffffffffffffffffffffffffffffffffffff16610629610f3d565b73ffffffffffffffffffffffffffffffffffffffff161480610658575061065781610652610f3d565b610cdb565b5b610697576040517f08c379a000000000000000000000000000000000000000000000000000000000815260040161068e90612384565b60405180910390fd5b6106a18383610f45565b505050565b6106b76106b1610f3d565b82610ffe565b6106f6576040517f08c379a00000000000000000000000000000000000000000000000000000000081526004016106ed90612484565b60405180910390fd5b6107018383836110dc565b505050565b606060006107146007611338565b905060008167ffffffffffffffff811115610758577f4e487b7100000000000000000000000000000000000000000000000000000000600052604160045260246000fd5b60405190808252806020026020018201604052801561079157816020015b61077e611994565b8152602001906001900390816107765790505b50905060005b828111610862576107a781610ed1565b1561084f5760006107b782610bb1565b905060405180606001604052808381526020018281526020016040518060400160405280600181526020017f2000000000000000000000000000000000000000000000000000000000000000815250815250838381518110610842577f4e487b7100000000000000000000000000000000000000000000000000000000600052603260045260246000fd5b6020026020010181905250505b808061085a9061278b565b915050610797565b50809250505090565b61088683838360405180602001604052806000815250610b4f565b505050565b6000806002600084815260200190815260200160002060009054906101000a900473ffffffffffffffffffffffffffffffffffffffff169050600073ffffffffffffffffffffffffffffffffffffffff168173ffffffffffffffffffffffffffffffffffffffff161415610934576040517f08c379a000000000000000000000000000000000000000000000000000000000815260040161092b906123c4565b60405180910390fd5b80915050919050565b60008073ffffffffffffffffffffffffffffffffffffffff168273ffffffffffffffffffffffffffffffffffffffff1614156109ae576040517f08c379a00000000000000000000000000000000000000000000000000000000081526004016109a5906123a4565b60405180910390fd5b600360008373ffffffffffffffffffffffffffffffffffffffff1673ffffffffffffffffffffffffffffffffffffffff168152602001908152602001600020549050919050565b6109fd610f3d565b73ffffffffffffffffffffffffffffffffffffffff16610a1b610a7d565b73ffffffffffffffffffffffffffffffffffffffff1614610a71576040517f08c379a0000000000000000000000000000000000000000000000000000000008152600401610a6890612424565b60405180910390fd5b610a7b6000611346565b565b6000600660009054906101000a900473ffffffffffffffffffffffffffffffffffffffff16905090565b606060018054610ab690612728565b80601f0160208091040260200160405190810160405280929190818152602001828054610ae290612728565b8015610b2f5780601f10610b0457610100808354040283529160200191610b2f565b820191906000526020600020905b815481529060010190602001808311610b1257829003601f168201915b5050505050905090565b610b4b610b44610f3d565b838361140c565b5050565b610b60610b5a610f3d565b83610ffe565b610b9f576040517f08c379a0000000000000000000000000000000000000000000000000000000008152600401610b9690612484565b60405180910390fd5b610bab84848484611579565b50505050565b6060610bbc82610ed1565b610bfb576040517f08c379a0000000000000000000000000000000000000000000000000000000008152600401610bf2906124a4565b60405180910390fd5b6000600860008481526020019081526020016000208054610c1b90612728565b80601f0160208091040260200160405190810160405280929190818152602001828054610c4790612728565b8015610c945780601f10610c6957610100808354040283529160200191610c94565b820191906000526020600020905b815481529060010190602001808311610c7757829003601f168201915b5050505050905080915050919050565b600080610cb16007611338565b9050610cbd84826115d5565b610cc781846117a3565b610cd160076117cf565b8091505092915050565b6000600560008473ffffffffffffffffffffffffffffffffffffffff1673ffffffffffffffffffffffffffffffffffffffff16815260200190815260200160002060008373ffffffffffffffffffffffffffffffffffffffff1673ffffffffffffffffffffffffffffffffffffffff16815260200190815260200160002060009054906101000a900460ff16905092915050565b610d77610f3d565b73ffffffffffffffffffffffffffffffffffffffff16610d95610a7d565b73ffffffffffffffffffffffffffffffffffffffff1614610deb576040517f08c379a0000000000000000000000000000000000000000000000000000000008152600401610de290612424565b60405180910390fd5b600073ffffffffffffffffffffffffffffffffffffffff168173ffffffffffffffffffffffffffffffffffffffff161415610e5b576040517f08c379a0000000000000000000000000000000000000000000000000000000008152600401610e52906122e4565b60405180910390fd5b610e6481611346565b50565b60007f01ffc9a7000000000000000000000000000000000000000000000000000000007bffffffffffffffffffffffffffffffffffffffffffffffffffffffff1916827bffffffffffffffffffffffffffffffffffffffffffffffffffffffff1916149050919050565b60008073ffffffffffffffffffffffffffffffffffffffff166002600084815260200190815260200160002060009054906101000a900473ffffffffffffffffffffffffffffffffffffffff1673ffffffffffffffffffffffffffffffffffffffff1614159050919050565b600033905090565b816004600083815260200190815260200160002060006101000a81548173ffffffffffffffffffffffffffffffffffffffff021916908373ffffffffffffffffffffffffffffffffffffffff160217905550808273ffffffffffffffffffffffffffffffffffffffff16610fb88361088b565b73ffffffffffffffffffffffffffffffffffffffff167f8c5be1e5ebec7d5bd14f71427d1e84f3dd0314c0f7b2291e5b200ac8c7c3b92560405160405180910390a45050565b600061100982610ed1565b611048576040517f08c379a000000000000000000000000000000000000000000000000000000000815260040161103f90612364565b60405180910390fd5b60006110538361088b565b90508073ffffffffffffffffffffffffffffffffffffffff168473ffffffffffffffffffffffffffffffffffffffff1614806110c257508373ffffffffffffffffffffffffffffffffffffffff166110aa84610509565b73ffffffffffffffffffffffffffffffffffffffff16145b806110d357506110d28185610cdb565b5b91505092915050565b8273ffffffffffffffffffffffffffffffffffffffff166110fc8261088b565b73ffffffffffffffffffffffffffffffffffffffff1614611152576040517f08c379a000000000000000000000000000000000000000000000000000000000815260040161114990612444565b60405180910390fd5b600073ffffffffffffffffffffffffffffffffffffffff168273ffffffffffffffffffffffffffffffffffffffff1614156111c2576040517f08c379a00000000000000000000000000000000000000000000000000000000081526004016111b990612324565b60405180910390fd5b6111cd8383836117e5565b6111d8600082610f45565b6001600360008573ffffffffffffffffffffffffffffffffffffffff1673ffffffffffffffffffffffffffffffffffffffff1681526020019081526020016000206000828254611228919061263e565b925050819055506001600360008473ffffffffffffffffffffffffffffffffffffffff1673ffffffffffffffffffffffffffffffffffffffff168152602001908152602001600020600082825461127f91906125e8565b92505081905550816002600083815260200190815260200160002060006101000a81548173ffffffffffffffffffffffffffffffffffffffff021916908373ffffffffffffffffffffffffffffffffffffffff160217905550808273ffffffffffffffffffffffffffffffffffffffff168473ffffffffffffffffffffffffffffffffffffffff167fddf252ad1be2c89b69c2b068fc378daa952ba7f163c4a11628f55a4df523b3ef60405160405180910390a4505050565b600081600001549050919050565b6000600660009054906101000a900473ffffffffffffffffffffffffffffffffffffffff16905081600660006101000a81548173ffffffffffffffffffffffffffffffffffffffff021916908373ffffffffffffffffffffffffffffffffffffffff1602179055508173ffffffffffffffffffffffffffffffffffffffff168173ffffffffffffffffffffffffffffffffffffffff167f8be0079c531659141344cd1fd0a4f28419497f9722a3daafe3b4186f6b6457e060405160405180910390a35050565b8173ffffffffffffffffffffffffffffffffffffffff168373ffffffffffffffffffffffffffffffffffffffff16141561147b576040517f08c379a000000000000000000000000000000000000000000000000000000000815260040161147290612344565b60405180910390fd5b80600560008573ffffffffffffffffffffffffffffffffffffffff1673ffffffffffffffffffffffffffffffffffffffff16815260200190815260200160002060008473ffffffffffffffffffffffffffffffffffffffff1673ffffffffffffffffffffffffffffffffffffffff16815260200190815260200160002060006101000a81548160ff0219169083151502179055508173ffffffffffffffffffffffffffffffffffffffff168373ffffffffffffffffffffffffffffffffffffffff167f17307eab39ab6107e8899845ad3d59bd9653f200f220920489ca2b5937696c318360405161156c9190612287565b60405180910390a3505050565b6115848484846110dc565b611590848484846117ea565b6115cf576040517f08c379a00000000000000000000000000000000000000000000000000000000081526004016115c6906122c4565b60405180910390fd5b50505050565b600073ffffffffffffffffffffffffffffffffffffffff168273ffffffffffffffffffffffffffffffffffffffff161415611645576040517f08c379a000000000000000000000000000000000000000000000000000000000815260040161163c906123e4565b60405180910390fd5b61164e81610ed1565b1561168e576040517f08c379a000000000000000000000000000000000000000000000000000000000815260040161168590612304565b60405180910390fd5b61169a600083836117e5565b6001600360008473ffffffffffffffffffffffffffffffffffffffff1673ffffffffffffffffffffffffffffffffffffffff16815260200190815260200160002060008282546116ea91906125e8565b92505081905550816002600083815260200190815260200160002060006101000a81548173ffffffffffffffffffffffffffffffffffffffff021916908373ffffffffffffffffffffffffffffffffffffffff160217905550808273ffffffffffffffffffffffffffffffffffffffff16600073ffffffffffffffffffffffffffffffffffffffff167fddf252ad1be2c89b69c2b068fc378daa952ba7f163c4a11628f55a4df523b3ef60405160405180910390a45050565b806008600084815260200190815260200160002090805190602001906117ca9291906119b5565b505050565b6001816000016000828254019250508190555050565b505050565b600061180b8473ffffffffffffffffffffffffffffffffffffffff16611981565b15611974578373ffffffffffffffffffffffffffffffffffffffff1663150b7a02611834610f3d565b8786866040518563ffffffff1660e01b81526004016118569493929190612219565b602060405180830381600087803b15801561187057600080fd5b505af19250505080156118a157506040513d601f19601f8201168201806040525081019061189e9190611db5565b60015b611924573d80600081146118d1576040519150601f19603f3d011682016040523d82523d6000602084013e6118d6565b606091505b5060008151141561191c576040517f08c379a0000000000000000000000000000000000000000000000000000000008152600401611913906122c4565b60405180910390fd5b805181602001fd5b63150b7a0260e01b7bffffffffffffffffffffffffffffffffffffffffffffffffffffffff1916817bffffffffffffffffffffffffffffffffffffffffffffffffffffffff191614915050611979565b600190505b949350505050565b600080823b905060008111915050919050565b60405180606001604052806000815260200160608152602001606081525090565b8280546119c190612728565b90600052602060002090601f0160209004810192826119e35760008555611a2a565b82601f106119fc57805160ff1916838001178555611a2a565b82800160010185558215611a2a579182015b82811115611a29578251825591602001919060010190611a0e565b5b509050611a379190611a3b565b5090565b5b80821115611a54576000816000905550600101611a3c565b5090565b6000611a6b611a6684612504565b6124df565b905082815260208101848484011115611a8357600080fd5b611a8e8482856126e6565b509392505050565b6000611aa9611aa484612535565b6124df565b905082815260208101848484011115611ac157600080fd5b611acc8482856126e6565b509392505050565b600081359050611ae381612ca4565b92915050565b600081359050611af881612cbb565b92915050565b600081359050611b0d81612cd2565b92915050565b600081519050611b2281612cd2565b92915050565b600082601f830112611b3957600080fd5b8135611b49848260208601611a58565b91505092915050565b600082601f830112611b6357600080fd5b8135611b73848260208601611a96565b91505092915050565b600081359050611b8b81612ce9565b92915050565b600060208284031215611ba357600080fd5b6000611bb184828501611ad4565b91505092915050565b60008060408385031215611bcd57600080fd5b6000611bdb85828601611ad4565b9250506020611bec85828601611ad4565b9150509250929050565b600080600060608486031215611c0b57600080fd5b6000611c1986828701611ad4565b9350506020611c2a86828701611ad4565b9250506040611c3b86828701611b7c565b9150509250925092565b60008060008060808587031215611c5b57600080fd5b6000611c6987828801611ad4565b9450506020611c7a87828801611ad4565b9350506040611c8b87828801611b7c565b925050606085013567ffffffffffffffff811115611ca857600080fd5b611cb487828801611b28565b91505092959194509250565b60008060408385031215611cd357600080fd5b6000611ce185828601611ad4565b9250506020611cf285828601611ae9565b9150509250929050565b60008060408385031215611d0f57600080fd5b6000611d1d85828601611ad4565b925050602083013567ffffffffffffffff811115611d3a57600080fd5b611d4685828601611b52565b9150509250929050565b60008060408385031215611d6357600080fd5b6000611d7185828601611ad4565b9250506020611d8285828601611b7c565b9150509250929050565b600060208284031215611d9e57600080fd5b6000611dac84828501611afe565b91505092915050565b600060208284031215611dc757600080fd5b6000611dd584828501611b13565b91505092915050565b600060208284031215611df057600080fd5b6000611dfe84828501611b7c565b91505092915050565b6000611e138383612189565b905092915050565b611e2481612672565b82525050565b6000611e3582612576565b611e3f81856125a4565b935083602082028501611e5185612566565b8060005b85811015611e8d5784840389528151611e6e8582611e07565b9450611e7983612597565b925060208a01995050600181019050611e55565b50829750879550505050505092915050565b611ea881612684565b82525050565b6000611eb982612581565b611ec381856125b5565b9350611ed38185602086016126f5565b611edc81612861565b840191505092915050565b6000611ef28261258c565b611efc81856125c6565b9350611f0c8185602086016126f5565b611f1581612861565b840191505092915050565b6000611f2b8261258c565b611f3581856125d7565b9350611f458185602086016126f5565b611f4e81612861565b840191505092915050565b6000611f666032836125d7565b9150611f7182612872565b604082019050919050565b6000611f896026836125d7565b9150611f94826128c1565b604082019050919050565b6000611fac601c836125d7565b9150611fb782612910565b602082019050919050565b6000611fcf6024836125d7565b9150611fda82612939565b604082019050919050565b6000611ff26019836125d7565b9150611ffd82612988565b602082019050919050565b6000612015602c836125d7565b9150612020826129b1565b604082019050919050565b60006120386038836125d7565b915061204382612a00565b604082019050919050565b600061205b602a836125d7565b915061206682612a4f565b604082019050919050565b600061207e6029836125d7565b915061208982612a9e565b604082019050919050565b60006120a16020836125d7565b91506120ac82612aed565b602082019050919050565b60006120c4602c836125d7565b91506120cf82612b16565b604082019050919050565b60006120e76020836125d7565b91506120f282612b65565b602082019050919050565b600061210a6029836125d7565b915061211582612b8e565b604082019050919050565b600061212d6021836125d7565b915061213882612bdd565b604082019050919050565b60006121506031836125d7565b915061215b82612c2c565b604082019050919050565b60006121736018836125d7565b915061217e82612c7b565b602082019050919050565b60006060830160008301516121a160008601826121e0565b50602083015184820360208601526121b98282611ee7565b915050604083015184820360408601526121d38282611ee7565b9150508091505092915050565b6121e9816126dc565b82525050565b6121f8816126dc565b82525050565b60006020820190506122136000830184611e1b565b92915050565b600060808201905061222e6000830187611e1b565b61223b6020830186611e1b565b61224860408301856121ef565b818103606083015261225a8184611eae565b905095945050505050565b6000602082019050818103600083015261227f8184611e2a565b905092915050565b600060208201905061229c6000830184611e9f565b92915050565b600060208201905081810360008301526122bc8184611f20565b905092915050565b600060208201905081810360008301526122dd81611f59565b9050919050565b600060208201905081810360008301526122fd81611f7c565b9050919050565b6000602082019050818103600083015261231d81611f9f565b9050919050565b6000602082019050818103600083015261233d81611fc2565b9050919050565b6000602082019050818103600083015261235d81611fe5565b9050919050565b6000602082019050818103600083015261237d81612008565b9050919050565b6000602082019050818103600083015261239d8161202b565b9050919050565b600060208201905081810360008301526123bd8161204e565b9050919050565b600060208201905081810360008301526123dd81612071565b9050919050565b600060208201905081810360008301526123fd81612094565b9050919050565b6000602082019050818103600083015261241d816120b7565b9050919050565b6000602082019050818103600083015261243d816120da565b9050919050565b6000602082019050818103600083015261245d816120fd565b9050919050565b6000602082019050818103600083015261247d81612120565b9050919050565b6000602082019050818103600083015261249d81612143565b9050919050565b600060208201905081810360008301526124bd81612166565b9050919050565b60006020820190506124d960008301846121ef565b92915050565b60006124e96124fa565b90506124f5828261275a565b919050565b6000604051905090565b600067ffffffffffffffff82111561251f5761251e612832565b5b61252882612861565b9050602081019050919050565b600067ffffffffffffffff8211156125505761254f612832565b5b61255982612861565b9050602081019050919050565b6000819050602082019050919050565b600081519050919050565b600081519050919050565b600081519050919050565b6000602082019050919050565b600082825260208201905092915050565b600082825260208201905092915050565b600082825260208201905092915050565b600082825260208201905092915050565b60006125f3826126dc565b91506125fe836126dc565b9250827fffffffffffffffffffffffffffffffffffffffffffffffffffffffffffffffff03821115612633576126326127d4565b5b828201905092915050565b6000612649826126dc565b9150612654836126dc565b925082821015612667576126666127d4565b5b828203905092915050565b600061267d826126bc565b9050919050565b60008115159050919050565b60007fffffffff0000000000000000000000000000000000000000000000000000000082169050919050565b600073ffffffffffffffffffffffffffffffffffffffff82169050919050565b6000819050919050565b82818337600083830152505050565b60005b838110156127135780820151818401526020810190506126f8565b83811115612722576000848401525b50505050565b6000600282049050600182168061274057607f821691505b6020821081141561275457612753612803565b5b50919050565b61276382612861565b810181811067ffffffffffffffff8211171561278257612781612832565b5b80604052505050565b6000612796826126dc565b91507fffffffffffffffffffffffffffffffffffffffffffffffffffffffffffffffff8214156127c9576127c86127d4565b5b600182019050919050565b7f4e487b7100000000000000000000000000000000000000000000000000000000600052601160045260246000fd5b7f4e487b7100000000000000000000000000000000000000000000000000000000600052602260045260246000fd5b7f4e487b7100000000000000000000000000000000000000000000000000000000600052604160045260246000fd5b6000601f19601f8301169050919050565b7f4552433732313a207472616e7366657220746f206e6f6e20455243373231526560008201527f63656976657220696d706c656d656e7465720000000000000000000000000000602082015250565b7f4f776e61626c653a206e6577206f776e657220697320746865207a65726f206160008201527f6464726573730000000000000000000000000000000000000000000000000000602082015250565b7f4552433732313a20746f6b656e20616c7265616479206d696e74656400000000600082015250565b7f4552433732313a207472616e7366657220746f20746865207a65726f2061646460008201527f7265737300000000000000000000000000000000000000000000000000000000602082015250565b7f4552433732313a20617070726f766520746f2063616c6c657200000000000000600082015250565b7f4552433732313a206f70657261746f7220717565727920666f72206e6f6e657860008201527f697374656e7420746f6b656e0000000000000000000000000000000000000000602082015250565b7f4552433732313a20617070726f76652063616c6c6572206973206e6f74206f7760008201527f6e6572206e6f7220617070726f76656420666f7220616c6c0000000000000000602082015250565b7f4552433732313a2062616c616e636520717565727920666f7220746865207a6560008201527f726f206164647265737300000000000000000000000000000000000000000000602082015250565b7f4552433732313a206f776e657220717565727920666f72206e6f6e657869737460008201527f656e7420746f6b656e0000000000000000000000000000000000000000000000602082015250565b7f4552433732313a206d696e7420746f20746865207a65726f2061646472657373600082015250565b7f4552433732313a20617070726f76656420717565727920666f72206e6f6e657860008201527f697374656e7420746f6b656e0000000000000000000000000000000000000000602082015250565b7f4f776e61626c653a2063616c6c6572206973206e6f7420746865206f776e6572600082015250565b7f4552433732313a207472616e73666572206f6620746f6b656e2074686174206960008201527f73206e6f74206f776e0000000000000000000000000000000000000000000000602082015250565b7f4552433732313a20617070726f76616c20746f2063757272656e74206f776e6560008201527f7200000000000000000000000000000000000000000000000000000000000000602082015250565b7f4552433732313a207472616e736665722063616c6c6572206973206e6f74206f60008201527f776e6572206e6f7220617070726f766564000000000000000000000000000000602082015250565b7f555249206e6f74206578697374206f6e20746861742049440000000000000000600082015250565b612cad81612672565b8114612cb857600080fd5b50565b612cc481612684565b8114612ccf57600080fd5b50565b612cdb81612690565b8114612ce657600080fd5b50565b612cf2816126dc565b8114612cfd57600080fd5b5056fea2646970667358221220e021b3174a0c224a8d6e6d52546e7317d27c0a2ec7c898e28562f3689dc25af564736f6c63430008020033",
  "linkReferences": {},
  "deployedLinkReferences": {}
}